:100000000C9462000C948A000C948A000C948A0070
:100010000C948A000C948A000C948A000C948A0038
:100020000C948A000C948A000C948A000C948A0028
:100030000C948A000C948A000C948A000C948A0018
:100040000C9499030C948A000C9467030C9441035C
:100050000C948A000C948A000C948A000C948A00F8
:100060000C948A000C948A000000000024002700F1
:100070002A0000000000250028002B0000000000DE
:1000800023002600290004040404040404040202DA
:100090000202020203030303030301020408102007
:1000A0004080010204081020010204081020000012
:1000B0000008000201000003040700000000000027
:1000C0000000D00511241FBECFEFD8E0DEBFCDBFAA
:1000D00011E0A0E0B1E0E8E1FEE002C005900D9281
:1000E000AE37B107D9F722E0AEE7B1E001C01D920B
:1000F000A432B207E1F710E0C2E6D0E004C02197D5
:10010000FE010E940407C136D107C9F70E94E3032C
:100110000C940A070C940000AF92BF92CF92DF922A
:10012000EF92FF920F931F93CF93DF936C017B01AC
:100130008B01040F151FEB015E01AE18BF08C0173D
:10014000D10759F06991D601ED91FC910190F081B0
:10015000E02DC6010995892B79F7C501DF91CF9173
:100160001F910F91FF90EF90DF90CF90BF90AF90D5
:100170000895FC01538D448D252F30E0842F90E0AD
:10018000821B930B541710F0CF9608950197089592
:10019000FC01918D828D981761F0A28DAE0FBF2F5B
:1001A000B11D5D968C91928D9F5F9F73928F90E0B1
:1001B00008958FEF9FEF0895FC01918D828D981720
:1001C00031F0828DE80FF11D858D90E008958FEF5D
:1001D0009FEF0895FC01918D228D892F90E0805C26
:1001E0009F4F821B91098F739927089587E891E0AB
:1001F0000E94EA0021E0892B09F420E0822F089573
:1002000080E090E0892B29F00E94F60081110C9487
:1002100000000895FC01A48DA80FB92FB11DA35AA9
:10022000BF4F2C91848D90E001968F739927848F16
:10023000A689B7892C93A089B1898C918370806439
:100240008C93938D848D981306C00288F389E02DDA
:1002500080818F7D80830895EF92FF920F931F938B
:10026000CF93DF93EC0181E0888F9B8D8C8D981369
:100270001AC0E889F989808185FF15C09FB7F89475
:10028000EE89FF896083E889F989808183708064C1
:1002900080839FBF81E090E0DF91CF911F910F910C
:1002A000FF90EF900895F62E0B8D10E00F5F1F4F1B
:1002B0000F731127E02E8C8D8E110CC00FB607FC2A
:1002C000FACFE889F989808185FFF5CFCE010E94B8
:1002D0000A01F1CFEB8DEC0FFD2FF11DE35AFF4F1B
:1002E000F0829FB7F8940B8FEA89FB898081806246
:1002F000CFCFCF93DF93EC01888D8823B9F0AA8903
:10030000BB89E889F9898C9185FD03C0808186FDD0
:100310000DC00FB607FCF7CF8C9185FFF2CF80811F
:1003200085FFEDCFCE010E940A01E9CFDF91CF9189
:100330000895833081F028F4813099F08230A9F05B
:1003400008958730A9F08830C9F08430B1F48091E5
:1003500080008F7D03C0809180008F778093800024
:10036000089584B58F7784BD089584B58F7DFBCFC4
:100370008091B0008F778093B00008958091B00095
:100380008F7DF9CFCF93DF93282F30E0F901E2552D
:10039000FF4F8491F901E656FF4FD491F901EA57D6
:1003A000FF4FC491CC23A1F081110E949901EC2F41
:1003B000F0E0EE0FFF1FE458FF4FA591B491EC91D0
:1003C000ED2381E090E009F480E0DF91CF91089582
:1003D00080E090E0FACF1F93CF93DF93282F30E097
:1003E000F901E255FF4F8491F901E656FF4FD49190
:1003F000F901EA57FF4FC491CC23A9F0162F8111C0
:100400000E949901EC2FF0E0EE0FFF1FEE58FF4F16
:10041000A591B4918FB7F894EC91111108C0D095C3
:10042000DE23DC938FBFDF91CF911F910895DE2BE8
:10043000F8CFCF93DF9390E0FC01E656FF4F249175
:100440008A579F4FFC0184918823D1F090E0880F58
:10045000991FFC01E859FF4FA591B491FC01EE589A
:10046000FF4FC591D491623071F49FB7F8943C91DD
:10047000822F809583238C93E8812E2B28839FBF26
:10048000DF91CF9108958FB7F894EC912E2B2C9398
:100490008FBFF6CF3FB7F89480918301909184018C
:1004A000A0918501B091860126B5A89B05C02F3F7C
:1004B00019F00196A11DB11D3FBFBA2FA92F982F8A
:1004C0008827BC01CD01620F711D811D911D42E085
:1004D000660F771F881F991F4A95D1F708958F924D
:1004E0009F92AF92BF92CF92DF92EF92FF924B0119
:1004F0005C010E944A026B017C010E944A026C1955
:100500007D098E099F09683E734081059105A8F316
:1005100021E0821A9108A108B10888EEC80E83E094
:10052000D81EE11CF11C81149104A104B10429F727
:10053000FF90EF90DF90CF90BF90AF909F908F9003
:100540000895FC0101900020E9F73197AF01481BA5
:10055000590BBC0187E891E00C948C00CF93DF939A
:100560000E94A102EC0186E191E00E94A1028C0FA1
:100570009D1FDF91CF9108958F929F92AF92BF926E
:10058000CF92DF92EF92FF920F931F93CF93DF935F
:10059000CDB7DEB7A1970FB6F894DEBF0FBECDBFC3
:1005A0006C01990FEE08FF08F7FE47C06DE287E87F
:1005B00091E00E942C018C0122273327A9012C19DC
:1005C0003D094E095F0919A2CE0181967C019AE08E
:1005D000892E912CA12CB12CCA01B901A50194013D
:1005E0000E94D306605DF70162937F0121153105FA
:1005F0004105510589F790E080E0309719F0CF016F
:100600000E94A102080F191F86E191E00E94A10239
:10061000800F911FA1960FB6F894DEBF0FBECDBF1D
:10062000DF91CF911F910F91FF90EF90DF90CF90CE
:10063000BF90AF909F908F900895A701960119A247
:100640008E010F5D1F4F8AE0C82ED12CE12CF12CBA
:10065000CA01B901A70196010E94D306605DF801A5
:1006600062938F01211531054105510589F73097B6
:1006700029F0CF010E94A1028C01C6CF10E000E05A
:10068000C3CF1F920F920FB60F9211242F933F9357
:100690004F935F936F937F938F939F93AF93BF938A
:1006A000EF93FF9387E891E00E940A01FF91EF9199
:1006B000BF91AF919F918F917F916F915F914F917A
:1006C0003F912F910F900FBE0F901F9018951F9282
:1006D0000F920FB60F9211242F938F939F93EF9346
:1006E000FF93E0919701F09198018081E0919D0145
:1006F000F0919E0182FD1BC090818091A0018F5FCF
:100700008F732091A101821741F0E091A001F0E0E8
:10071000E957FE4F958F8093A001FF91EF919F9134
:100720008F912F910F900FBE0F901F901895808181
:10073000F4CF1F920F920FB60F9211242F933F9375
:100740008F939F93AF93BF9380917F01909180018E
:10075000A0918101B091820130917E0123E0230FAD
:100760002D3758F50196A11DB11D20937E01809370
:100770007F0190938001A0938101B09382018091C9
:10078000830190918401A0918501B0918601019629
:10079000A11DB11D8093830190938401A0938501D5
:1007A000B0938601BF91AF919F918F913F912F910F
:1007B0000F900FBE0F901F90189526E8230F0296FA
:1007C000A11DB11DD2CFCF93DF9300D000D0CDB704
:1007D000DEB7789484B5826084BD84B5816084BDC1
:1007E00085B5826085BD85B5816085BD80916E00CF
:1007F000816080936E001092810080918100826000
:10080000809381008091810081608093810080913C
:1008100080008160809380008091B100846080932B
:10082000B1008091B00081608093B00080917A0027
:10083000846080937A0080917A00826080937A004D
:1008400080917A00816080937A0080917A0080683C
:1008500080937A001092C100E0919701F091980185
:1008600082E08083E0919301F09194011082E09105
:100870009501F09196018FEC808310929F01E09199
:100880009B01F0919C0186E08083E0919901F091B9
:100890009A01808180618083E0919901F0919A01B1
:1008A000808188608083E0919901F0919A01808134
:1008B00080688083E0919901F0919A0180818F7D19
:1008C000808362E082E00E94190262E083E00E947D
:1008D000190262E084E00E94190262E085E00E9451
:1008E000190261E088E00E94190261E089E00E943B
:1008F000190261E08AE00E94190261E08BE00E9427
:10090000190261E086E00E94190261E087E00E941E
:10091000190282E00E94C2017C0183E00E94C201B0
:1009200084E00E94C20185E00E94C20189E191E059
:100930000E94AE0281E090E0EF2811F490E080E0A8
:100940000E94BC0234E0E32EF12C44E0242E312C32
:10095000412C512C2DB73EB73C832B83C701880F08
:10096000991FEDB7FEB7E81BF90B0FB6F894FEBF61
:100970000FBEEDBF2DB73EB72F5F3F4F690185E238
:1009800091E00E94AE02DA82C9823601D12CC12CDC
:100990000E944906A20191010E94A1064B015C013F
:1009A00038E0830E911CA11CB11CC4010E94BC0242
:1009B000F301819291923F0161E0882D0E94EB0149
:1009C00064EF71E080E090E00E946F0260E0882DAB
:1009D0000E94EB0164EF71E080E090E00E946F0202
:1009E000FFEFCF1ADF0AEC14FD0491F68DE391E0DE
:1009F0000E94AE02712C612CE981FA81C190D190E4
:100A0000FA83E983C6010E94BC02F8E0CF16D10444
:100A100089F029E0C216D10409F46EC03AE0C31689
:100A2000D10409F46CC08BE0C816D10429F405E0A8
:100A300010E002C002E010E082E00E94C2014C011E
:100A400083E00E94C2015C0184E00E94C2016C014B
:100A500085E00E94C2010230110509F053C08928C7
:100A600009F07CC08EE491E00E94AE0290E080E04C
:100A70000E94BC0261E088E00E94EB0185E591E004
:100A80000E94AE0260E273E080E090E00E946F029C
:100A900060E088E00E94EB0160E089E00E94EB01E9
:100AA00060E08AE00E94EB0160E08BE00E94EB01D5
:100AB0009FEF691A790AE614F70409F09DCF81E0E7
:100AC000EB81FC810FB6F894FEBF0FBEEDBF88230B
:100AD00009F454C061E087E00E94EB0160EB74E030
:100AE00080E090E00E946F0260E087E00E94EB01EE
:100AF000FFEFEF1AFF0A2ECF03E010E09DCF04E0D6
:100B000010E09ACF0330110571F4A114B10409F576
:100B10008EE491E00E94AE0290E080E00E94BC0270
:100B200061E089E0A9CF0430110531F4C114D1048A
:100B300081F461E08AE0A0CF009759F48EE491E05F
:100B40000E94AE0290E080E00E94BC0261E08BE077
:100B500093CF892889F00330110529F0AB2861F083
:100B60000430110531F0CD2839F00530110509F4B4
:100B700063CF892B09F060CF80E0A2CF8CE691E0B3
:100B80000E94AE0261E086E00E94EB0160E273E049
:100B900080E090E00E946F0290E080E00E940A07EF
:100BA000E7E8F1E01382128288EE93E0A0E0B0E083
:100BB00084839583A683B78388E091E091838083C3
:100BC00085EC90E09587848784EC90E09787868712
:100BD00080EC90E0918B808B81EC90E0938B828B0A
:100BE00082EC90E0958B848B86EC90E0978B868BE3
:100BF000118E128E138E148E08958F929F92AF9243
:100C0000BF92CF92DF92EF92FF92CF93DF93EC01EE
:100C1000688179818A819B816115710581059105C2
:100C200021F464E279ED8BE597E02DE133EF41E0CB
:100C300050E00E94A10649015A019B01AC01A7EABC
:100C4000B1E40E94C0066B017C01ACEEB4EFA501DB
:100C500094010E94CE06C60ED71EE81EF91EF7FEAE
:100C600006C081E0C81AD108E10880E8F80AC88205
:100C7000D982EA82FB82C701B6019F77DF91CF91CB
:100C8000FF90EF90DF90CF90BF90AF909F908F90AC
:100C900008958F929F92AF92BF92CF92DF92EF9280
:100CA000FF92609100017091010180910201909189
:100CB0000301611571058105910521F464E279ED67
:100CC0008BE597E02DE133EF41E050E00E94A10673
:100CD00049015A019B01AC01A7EAB1E40E94C00698
:100CE0006B017C01ACEEB4EFA50194010E94CE062D
:100CF000C60ED71EE81EF91EF7FE06C081E0C81A10
:100D0000D108E10880E8F80AC0920001D092010100
:100D1000E0920201F0920301C701B6019F77FF90B4
:100D2000EF90DF90CF90BF90AF909F908F900895FD
:100D3000609300017093010180930201909303017D
:100D40000895052E97FB1EF400940E94B80657FDE7
:100D500007D00E94D30607FC03D04EF40C94B806CB
:100D600050954095309521953F4F4F4F5F4F0895D7
:100D700090958095709561957F4F8F4F9F4F089507
:100D80000E94F506A59F900DB49F900DA49F800D25
:100D9000911D11240895B7FF0C94C0060E94C0064F
:100DA000821B930B0895A1E21A2EAA1BBB1BFD0107
:100DB0000DC0AA1FBB1FEE1FFF1FA217B307E4073A
:100DC000F50720F0A21BB30BE40BF50B661F771F92
:100DD000881F991F1A9469F7609570958095909572
:100DE0009B01AC01BD01CF010895A29FB001B39F4B
:100DF000C001A39F700D811D1124911DB29F700D24
:100E0000811D1124911D0895EE0FFF1F0590F4918F
:080E1000E02D0994F894FFCFD6
:100E180001000000000000002C018C00B9007901DD
:100E2800EA00C800DC000D0A0047616D65206265B4
:100E380067696E730046756E6374696F6E206469C6
:100E480073706C61795061747465726E005061746E
:100E58007465726E20636F6D706C657465005061A7
:100E68007373656400436F727265637420427574AE
:100E7800746F6E205072657373656400506174748A
:0E0E880065726E20696E636F7272656374002E
:107E0000112484B714BE81FFF0D085E080938100F7
:107E100082E08093C00088E18093C10086E0809377
:107E2000C20080E18093C4008EE0C9D0259A86E02C
:107E300020E33CEF91E0309385002093840096BBD3
:107E4000B09BFECF1D9AA8958150A9F7CC24DD24C4
:107E500088248394B5E0AB2EA1E19A2EF3E0BF2EE7
:107E6000A2D0813461F49FD0082FAFD0023811F036
:107E7000013811F484E001C083E08DD089C08234E0
:107E800011F484E103C0853419F485E0A6D080C0E4
:107E9000853579F488D0E82EFF2485D0082F10E0AE
:107EA000102F00270E291F29000F111F8ED06801E7
:107EB0006FC0863521F484E090D080E0DECF843638
:107EC00009F040C070D06FD0082F6DD080E0C81688
:107ED00080E7D80618F4F601B7BEE895C0E0D1E017
:107EE00062D089930C17E1F7F0E0CF16F0E7DF06D8
:107EF00018F0F601B7BEE89568D007B600FCFDCFD4
:107F0000A601A0E0B1E02C9130E011968C91119780
:107F100090E0982F8827822B932B1296FA010C0160
:107F200087BEE89511244E5F5F4FF1E0A038BF0790
:107F300051F7F601A7BEE89507B600FCFDCF97BE46
:107F4000E89526C08437B1F42ED02DD0F82E2BD052
:107F50003CD0F601EF2C8F010F5F1F4F84911BD097
:107F6000EA94F801C1F70894C11CD11CFA94CF0C13
:107F7000D11C0EC0853739F428D08EE10CD085E9AC
:107F80000AD08FE07ACF813511F488E018D01DD067
:107F900080E101D065CF982F8091C00085FFFCCF94
:107FA0009093C60008958091C00087FFFCCF809118
:107FB000C00084FD01C0A8958091C6000895E0E648
:107FC000F0E098E1908380830895EDDF803219F02E
:107FD00088E0F5DFFFCF84E1DECF1F93182FE3DFCA
:107FE0001150E9F7F2DF1F91089580E0E8DFEE27F6
:047FF000FF270994CA
:027FFE00040479
:0400000300007E007B
:00000001FF
