:100000000C9462000C948A000C948A000C948A0070
:100010000C948A000C948A000C948A000C948A0038
:100020000C948A000C948A000C948A000C948A0028
:100030000C948A000C948A000C948A000C948A0018
:100040000C94D3020C948A000C94A1020C947B02B1
:100050000C948A000C948A000C948A000C948A00F8
:100060000C948A000C948A000000000024002700F1
:100070002A0000000000250028002B0000000000DE
:1000800023002600290004040404040404040202DA
:100090000202020203030303030301020408102007
:1000A0004080010204081020010204081020000012
:1000B0000008000201000003040700000000000027
:1000C0000000910411241FBECFEFD8E0DEBFCDBFEA
:1000D00011E0A0E0B1E0E4E1FBE002C005900D9288
:1000E000AA32B107D9F721E0AAE2B1E001C01D921E
:1000F000A03DB207E1F710E0C2E6D0E004C02197CE
:10010000FE010E947D05C136D107C9F70E941D037B
:100110000C9488050C940000CF92DF92EF92FF922E
:100120000F931F93CF93DF936C017A018B01C0E093
:10013000D0E0CE15DF0589F0D8016D918D01D60193
:10014000ED91FC910190F081E02DC6010995892B7C
:1001500011F47E0102C02196ECCFC701DF91CF914F
:100160001F910F91FF90EF90DF90CF900895089529
:1001700080E090E00895FC01538D448D252F30E000
:10018000842F90E0821B930B541710F0CF960895A4
:1001900001970895FC01918D828D981761F0828DF1
:1001A000DF01A80FB11D5D968C91928D9F5F9F73AB
:1001B000928F90E008958FEF9FEF0895FC01918D4D
:1001C000828D981731F0828DE80FF11D858D90E0BA
:1001D00008958FEF9FEF0895FC01918D228D892F57
:1001E00090E0805C9F4F821B91098F73992708953F
:1001F00083E391E00E94EC0021E0892B09F420E0E8
:10020000822F0895FC01848DDF01A80FB11DA35A30
:10021000BF4F2C91848D90E001968F739927848F26
:10022000A689B7892C93A089B1898C9180648C931D
:10023000938D848D981306C00288F389E02D808108
:100240008F7D80830895EF92FF920F931F93CF933A
:10025000DF93EC0181E0888F9B8D8C8D981305C016
:10026000E889F989808185FD24C0F62E0B8D10E088
:100270000F5F1F4F0F731127E02E8C8DE8120CC0FB
:100280000FB607FCFACFE889F989808185FFF5CFA1
:10029000CE010E940201F1CF8B8DFE01E80FF11D0E
:1002A000E35AFF4FF0820B8FEA89FB8980818062DD
:1002B00007C0EE89FF896083E889F98980818064BD
:1002C000808381E090E0DF91CF911F910F91FF90AB
:1002D000EF900895CF93DF93EC01888D8823C9F0C8
:1002E000EA89FB89808185FD05C0A889B9898C913F
:1002F00086FD0FC00FB607FCF5CF808185FFF2CFDA
:10030000A889B9898C9185FFEDCFCE010E940201A9
:10031000E7CFDF91CF91089580E090E0892B29F01D
:100320000E94F80081110C9400000895833081F040
:1003300028F4813099F08230A1F008958730A9F037
:100340008830B9F08430D1F4809180008F7D03C073
:10035000809180008F7780938000089584B58F7797
:1003600002C084B58F7D84BD08958091B0008F77E1
:1003700003C08091B0008F7D8093B0000895CF932B
:10038000DF93282F30E0F901E255FF4F8491F90106
:10039000E656FF4FD491F901EA57FF4FC491CC23A1
:1003A00091F081110E949601EC2FF0E0EE0FFF1FFB
:1003B000E458FF4FA591B491EC91ED2381E090E0DA
:1003C00021F480E002C080E090E0DF91CF910895B9
:1003D0001F93CF93DF93282F30E0F901E255FF4FB1
:1003E0008491F901E656FF4FD491F901EA57FF4F86
:1003F000C491CC23C9F0162F81110E949601EC2FD5
:10040000F0E0EE0FFF1FEE58FF4FA591B4918FB7AC
:10041000F894111105C09C91ED2FE095E92302C0DD
:10042000EC91ED2BEC938FBFDF91CF911F9108954D
:10043000CF93DF9390E0FC01E656FF4F2491FC013F
:10044000EA57FF4F8491882361F190E0880F991F4C
:10045000FC01E859FF4FC591D491FC01EE58FF4FC4
:10046000A591B491611109C09FB7F8948881209536
:1004700082238883EC912E230BC0623061F49FB7F6
:10048000F8943881822F809583238883EC912E2BDA
:100490002C939FBF06C08FB7F894E8812E2B28833A
:1004A0008FBFDF91CF9108953FB7F89480912F01CE
:1004B00090913001A0913101B091320126B5A89BF5
:1004C00005C02F3F19F00196A11DB11D3FBFBA2FE6
:1004D000A92F982F8827820F911DA11DB11DBC0146
:1004E000CD0142E0660F771F881F991F4A95D1F70B
:1004F00008950E9483051F920F920FB60F92112448
:100500002F933F934F935F936F937F938F939F931B
:10051000AF93BF93EF93FF9383E391E00E940201B7
:10052000FF91EF91BF91AF919F918F917F916F91CB
:100530005F914F913F912F910F900FBE0F901F90A1
:1005400018951F920F920FB60F9211242F938F932D
:100550009F93EF93FF93E0914301F09144018081D9
:10056000E0914901F0914A0182FD12C09081809191
:100570004C018F5F8F7320914D01821751F0E091F4
:100580004C01F0E0ED5CFE4F958F80934C0101C073
:100590008081FF91EF919F918F912F910F900FBECE
:1005A0000F901F9018951F920F920FB60F92112463
:1005B0002F933F938F939F93AF93BF9380912B0182
:1005C00090912C01A0912D01B0912E0130912A0122
:1005D00023E0230F2D3720F40196A11DB11D05C086
:1005E00026E8230F0296A11DB11D20932A018093B6
:1005F0002B0190932C01A0932D01B0932E0180919B
:100600002F0190913001A0913101B09132010196FA
:10061000A11DB11D80932F0190933001A093310152
:10062000B0933201BF91AF919F918F913F912F91E4
:100630000F900FBE0F901F901895CF93DF93CDB7FB
:10064000DEB72C970FB6F894DEBF0FBECDBF7894FF
:1006500084B5826084BD84B5816084BD85B58260C7
:1006600085BD85B5816085BD80916E008160809378
:100670006E001092810080918100826080938100E1
:1006800080918100816080938100809180008160F1
:10069000809380008091B10084608093B10080914C
:1006A000B00081608093B00080917A008460809374
:1006B0007A0080917A00826080937A0080917A003B
:1006C000816080937A0080917A00806880937A00BC
:1006D0001092C100E0914301F091440182E08083D7
:1006E000E0913F01F09140011082E0914101F091D1
:1006F00042018FEC808310924B01E0914701F09111
:10070000480186E08083E0914501F09146018081B7
:1007100080618083E0914501F0914601808188608D
:100720008083E0914501F09146018081806880835B
:10073000E0914501F091460180818F7D808362E0E8
:1007400081E00E94180262E082E00E94180262E0EA
:1007500083E00E94180262E084E00E94180261E0D7
:1007600088E00E94180261E089E00E94180261E0BE
:100770008AE00E94180261E08BE00E94180261E0AA
:1007800086E00E94180261E087E00E94180281E082
:100790000E94BF0182E00E94BF0183E00E94BF016E
:1007A00084E00E94BF0193E0A92EB12CCE010196F6
:1007B0001C016E0199E0C90ED11C71010E940C054B
:1007C00024E030E040E050E00E941A05DC01CB015B
:1007D0000896A11DB11DF701819391937F01EC153E
:1007E000FD0561F7CE0101967C01F7019080F2E0F2
:1007F000EF0EF11C61E0892D0E94E8010E94540275
:100800009B01AC0180E2482E83E0582E612C712CB4
:1008100029873A874B875C870E94540229853A854D
:100820004B855C85DC01CB01821B930BA40BB50BC4
:10083000883E9340A105B10548F061E0461A510891
:100840006108710828513C4F4F4F5F4F41145104CC
:1008500061047104E9F660E0892D0E94E801EC145E
:10086000FD0419F681E00E94BF01892B91F082E01E
:100870000E94BF01892B81F083E00E94BF01892B78
:1008800071F084E00E94BF01892B59F404E010E06C
:1008900008C001E010E005C002E010E002C003E083
:1008A00010E0F101819191911F0188309105B1F41F
:1008B0000130110531F140E150E066E171E083E380
:1008C00091E00E948C0042E050E067E271E083E337
:1008D00091E00E948C0061E086E01EC089309105A5
:1008E00021F40230110539F70CC08A30910531F03E
:1008F0000B9709F704301105F1F603C00330110519
:10090000D1F62C143D0409F0ADCFF1E0AF1AB108D7
:1009100009F04CCF61E087E00E94E8010E948C0161
:1009200036CFE3E3F1E01382128288EE93E0A0E099
:10093000B0E084839583A683B78388E091E09183B8
:10094000808385EC90E09587848784EC90E097879E
:10095000868780EC90E0918B808B81EC90E0938B8C
:10096000828B82EC90E0958B848B86EC90E0978B69
:10097000868B118E128E138E148E08958F929F92F5
:10098000AF92BF92CF92DF92EF92FF92CF93DF931D
:10099000EC01688179818A819B81611571058105EE
:1009A000910521F464E279ED8BE597E02DE133EFD9
:1009B00041E050E00E941A0549015A019B01AC0137
:1009C000A7EAB1E40E9439056B017C01ACEEB4EFFB
:1009D000A50194010E944705DC01CB018C0D9D1DF2
:1009E000AE1DBF1DB7FF03C00197A109B0488883A2
:1009F0009983AA83BB83BC01CD019F77DF91CF91FF
:100A0000FF90EF90DF90CF90BF90AF909F908F902E
:100A100008950E94BE04089580E091E00E94BE0403
:100A200008956093000170930101809302019093F7
:100A300003010895052E97FB1EF400940E943105D2
:100A400057FD07D00E944C0507FC03D04EF40C94D0
:100A5000310550954095309521953F4F4F4F5F4F51
:100A6000089590958095709561957F4F8F4F9F4F1A
:100A700008950E946E05A59F900DB49F900DA49FB0
:100A8000800D911D11240895B7FF0C9439050E9423
:100A90003905821B930B0895A1E21A2EAA1BBB1BDA
:100AA000FD010DC0AA1FBB1FEE1FFF1FA217B3073A
:100AB000E407F50720F0A21BB30BE40BF50B661F50
:100AC000771F881F991F1A9469F760957095809514
:100AD00090959B01AC01BD01CF010895A29FB0018B
:100AE000B39FC001A39F700D811D1124911DB29F62
:100AF000700D811D1124911D0895EE0FFF1F0590AB
:100B0000F491E02D099481E090E0F8940C9488052C
:040B1000F894FFCF87
:100B1400010000000000000023018C00BB006A01FA
:100B2400EC00CA00DE005061747465726E206D6959
:0A0B3400736D61746368000D0A0020
:107E0000112484B714BE81FFF0D085E080938100F7
:107E100082E08093C00088E18093C10086E0809377
:107E2000C20080E18093C4008EE0C9D0259A86E02C
:107E300020E33CEF91E0309385002093840096BBD3
:107E4000B09BFECF1D9AA8958150A9F7CC24DD24C4
:107E500088248394B5E0AB2EA1E19A2EF3E0BF2EE7
:107E6000A2D0813461F49FD0082FAFD0023811F036
:107E7000013811F484E001C083E08DD089C08234E0
:107E800011F484E103C0853419F485E0A6D080C0E4
:107E9000853579F488D0E82EFF2485D0082F10E0AE
:107EA000102F00270E291F29000F111F8ED06801E7
:107EB0006FC0863521F484E090D080E0DECF843638
:107EC00009F040C070D06FD0082F6DD080E0C81688
:107ED00080E7D80618F4F601B7BEE895C0E0D1E017
:107EE00062D089930C17E1F7F0E0CF16F0E7DF06D8
:107EF00018F0F601B7BEE89568D007B600FCFDCFD4
:107F0000A601A0E0B1E02C9130E011968C91119780
:107F100090E0982F8827822B932B1296FA010C0160
:107F200087BEE89511244E5F5F4FF1E0A038BF0790
:107F300051F7F601A7BEE89507B600FCFDCF97BE46
:107F4000E89526C08437B1F42ED02DD0F82E2BD052
:107F50003CD0F601EF2C8F010F5F1F4F84911BD097
:107F6000EA94F801C1F70894C11CD11CFA94CF0C13
:107F7000D11C0EC0853739F428D08EE10CD085E9AC
:107F80000AD08FE07ACF813511F488E018D01DD067
:107F900080E101D065CF982F8091C00085FFFCCF94
:107FA0009093C60008958091C00087FFFCCF809118
:107FB000C00084FD01C0A8958091C6000895E0E648
:107FC000F0E098E1908380830895EDDF803219F02E
:107FD00088E0F5DFFFCF84E1DECF1F93182FE3DFCA
:107FE0001150E9F7F2DF1F91089580E0E8DFEE27F6
:047FF000FF270994CA
:027FFE00040479
:0400000300007E007B
:00000001FF
