:100000000C9462000C948A000C948A000C948A0070
:100010000C948A000C948A000C948A000C948A0038
:100020000C948A000C948A000C948A000C948A0028
:100030000C948A000C948A000C948A000C948A0018
:100040000C9499030C948A000C9467030C9441035C
:100050000C948A000C948A000C948A000C948A00F8
:100060000C948A000C948A000000000024002700F1
:100070002A0000000000250028002B0000000000DE
:1000800023002600290004040404040404040202DA
:100090000202020203030303030301020408102007
:1000A0004080010204081020010204081020000012
:1000B0000008000201000003040700000000000027
:1000C0000000970511241FBECFEFD8E0DEBFCDBFE3
:1000D00011E0A0E0B1E0E6EAFDE002C005900D927B
:1000E000A838B107D9F722E0A8E8B1E001C01D9215
:1000F000AE32B207E1F710E0C2E6D0E004C02197CB
:10010000FE010E94CB06C136D107C9F70E94E30366
:100110000C94D1060C940000AF92BF92CF92DF9264
:10012000EF92FF920F931F93CF93DF936C017B01AC
:100130008B01040F151FEB015E01AE18BF08C0173D
:10014000D10759F06991D601ED91FC910190F081B0
:10015000E02DC6010995892B79F7C501DF91CF9173
:100160001F910F91FF90EF90DF90CF90BF90AF90D5
:100170000895FC01538D448D252F30E0842F90E0AD
:10018000821B930B541710F0CF9608950197089592
:10019000FC01918D828D981761F0A28DAE0FBF2F5B
:1001A000B11D5D968C91928D9F5F9F73928F90E0B1
:1001B00008958FEF9FEF0895FC01918D828D981720
:1001C00031F0828DE80FF11D858D90E008958FEF5D
:1001D0009FEF0895FC01918D228D892F90E0805C26
:1001E0009F4F821B91098F739927089581E991E0B0
:1001F0000E94EA0021E0892B09F420E0822F089573
:1002000080E090E0892B29F00E94F60081110C9487
:1002100000000895FC01A48DA80FB92FB11DA35AA9
:10022000BF4F2C91848D90E001968F739927848F16
:10023000A689B7892C93A089B1898C918370806439
:100240008C93938D848D981306C00288F389E02DDA
:1002500080818F7D80830895EF92FF920F931F938B
:10026000CF93DF93EC0181E0888F9B8D8C8D981369
:100270001AC0E889F989808185FF15C09FB7F89475
:10028000EE89FF896083E889F989808183708064C1
:1002900080839FBF81E090E0DF91CF911F910F910C
:1002A000FF90EF900895F62E0B8D10E00F5F1F4F1B
:1002B0000F731127E02E8C8D8E110CC00FB607FC2A
:1002C000FACFE889F989808185FFF5CFCE010E94B8
:1002D0000A01F1CFEB8DEC0FFD2FF11DE35AFF4F1B
:1002E000F0829FB7F8940B8FEA89FB898081806246
:1002F000CFCFCF93DF93EC01888D8823B9F0AA8903
:10030000BB89E889F9898C9185FD03C0808186FDD0
:100310000DC00FB607FCF7CF8C9185FFF2CF80811F
:1003200085FFEDCFCE010E940A01E9CFDF91CF9189
:100330000895833081F028F4813099F08230A9F05B
:1003400008958730A9F08830C9F08430B1F48091E5
:1003500080008F7D03C0809180008F778093800024
:10036000089584B58F7784BD089584B58F7DFBCFC4
:100370008091B0008F778093B00008958091B00095
:100380008F7DF9CFCF93DF93282F30E0F901E2552D
:10039000FF4F8491F901E656FF4FD491F901EA57D6
:1003A000FF4FC491CC23A1F081110E949901EC2F41
:1003B000F0E0EE0FFF1FE458FF4FA591B491EC91D0
:1003C000ED2381E090E009F480E0DF91CF91089582
:1003D00080E090E0FACF1F93CF93DF93282F30E097
:1003E000F901E255FF4F8491F901E656FF4FD49190
:1003F000F901EA57FF4FC491CC23A9F0162F8111C0
:100400000E949901EC2FF0E0EE0FFF1FEE58FF4F16
:10041000A591B4918FB7F894EC91111108C0D095C3
:10042000DE23DC938FBFDF91CF911F910895DE2BE8
:10043000F8CFCF93DF9390E0FC01E656FF4F249175
:100440008A579F4FFC0184918823D1F090E0880F58
:10045000991FFC01E859FF4FA591B491FC01EE589A
:10046000FF4FC591D491623071F49FB7F8943C91DD
:10047000822F809583238C93E8812E2B28839FBF26
:10048000DF91CF9108958FB7F894EC912E2B2C9398
:100490008FBFF6CF3FB7F89480918D0190918E0178
:1004A000A0918F01B091900126B5A89B05C02F3F68
:1004B00019F00196A11DB11D3FBFBA2FA92F982F8A
:1004C0008827BC01CD01620F711D811D911D42E085
:1004D000660F771F881F991F4A95D1F708958F924D
:1004E0009F92AF92BF92CF92DF92EF92FF924B0119
:1004F0005C010E944A026B017C010E944A026C1955
:100500007D098E099F09683E734081059105A8F316
:1005100021E0821A9108A108B10888EEC80E83E094
:10052000D81EE11CF11C81149104A104B10429F727
:10053000FF90EF90DF90CF90BF90AF909F908F9003
:100540000895FC0101900020E9F73197AF01481BA5
:10055000590BBC0181E991E00C948C00CF93DF939F
:100560000E94A102EC0186E191E00E94A1028C0FA1
:100570009D1FDF91CF9108958F929F92AF92BF926E
:10058000CF92DF92EF92FF920F931F93CF93DF935F
:10059000CDB7DEB7A1970FB6F894DEBF0FBECDBFC3
:1005A0006C01990FEE08FF08F7FE47C06DE281E984
:1005B00091E00E942C018C0122273327A9012C19DC
:1005C0003D094E095F0919A2CE0181967C019AE08E
:1005D000892E912CA12CB12CCA01B901A50194013D
:1005E0000E949A06605DF70162937F012115310533
:1005F0004105510589F790E080E0309719F0CF016F
:100600000E94A102080F191F86E191E00E94A10239
:10061000800F911FA1960FB6F894DEBF0FBECDBF1D
:10062000DF91CF911F910F91FF90EF90DF90CF90CE
:10063000BF90AF909F908F900895A701960119A247
:100640008E010F5D1F4F8AE0C82ED12CE12CF12CBA
:10065000CA01B901A70196010E949A06605DF801DE
:1006600062938F01211531054105510589F73097B6
:1006700029F0CF010E94A1028C01C6CF10E000E05A
:10068000C3CF1F920F920FB60F9211242F933F9357
:100690004F935F936F937F938F939F93AF93BF938A
:1006A000EF93FF9381E991E00E940A01FF91EF919E
:1006B000BF91AF919F918F917F916F915F914F917A
:1006C0003F912F910F900FBE0F901F9018951F9282
:1006D0000F920FB60F9211242F938F939F93EF9346
:1006E000FF93E091A101F091A2018081E091A70127
:1006F000F091A80182FD1BC090818091AA018F5FBB
:100700008F732091AB01821741F0E091AA01F0E0D4
:10071000EF56FE4F958F8093AA01FF91EF919F9125
:100720008F912F910F900FBE0F901F901895808181
:10073000F4CF1F920F920FB60F9211242F933F9375
:100740008F939F93AF93BF938091890190918A017A
:10075000A0918B01B0918C013091880123E0230F8F
:100760002D3758F50196A11DB11D20938801809366
:10077000890190938A01A0938B01B0938C018091A1
:100780008D0190918E01A0918F01B0919001019601
:10079000A11DB11D80938D0190938E01A0938F01B7
:1007A000B0939001BF91AF919F918F913F912F9105
:1007B0000F900FBE0F901F90189526E8230F0296FA
:1007C000A11DB11DD2CFCF93DF93CDB7DEB72A974E
:1007D0000FB6F894DEBF0FBECDBF789484B58260AB
:1007E00084BD84B5816084BD85B5826085BD85B5D5
:1007F000816085BD80916E00816080936E00109253
:1008000081008091810082608093810080918100CD
:10081000816080938100809180008160809380005E
:100820008091B10084608093B1008091B0008160BC
:100830008093B00080917A00846080937A008091E8
:100840007A00826080937A0080917A008160809340
:100850007A0080917A00806880937A001092C100BB
:10086000E091A101F091A20182E08083E0919D01DD
:10087000F0919E011082E0919F01F091A0018FEC18
:1008800080831092A901E091A501F091A60186E074
:100890008083E091A301F091A40180818061808335
:1008A000E091A301F091A401808188608083E091B0
:1008B000A301F091A401808180688083E091A3016D
:1008C000F091A40180818F7D808362E082E00E94AC
:1008D000190262E083E00E94190262E084E00E9453
:1008E000190262E085E00E94190261E088E00E943E
:1008F000190261E089E00E94190261E08AE00E9429
:10090000190261E08BE00E94190261E086E00E941A
:10091000190261E087E00E94190282E00E94C20190
:100920007C0183E00E94C20184E00E94C20185E054
:100930000E94C20189E191E00E94AE0281E090E054
:10094000EF2811F490E080E00E94BC028DB79EB7C2
:100950009A87898785E291E00E94AE02FE01319676
:100960007F016E01F9E0CF0ED11C370184E0282E03
:10097000312C412C512C0E941006A20191010E94A1
:1009800068064B015C0128E0820E911CA11CB11C81
:10099000C4010E94BC02F301819291923F0161E087
:1009A000882D0E94EB0164EF71E080E090E00E94EE
:1009B0006F0260E0882D0E94EB0164EF71E080E03F
:1009C00090E00E946F02C614D704A9F68DE391E06F
:1009D0000E94AE02F701C190D1907F01C6010E9432
:1009E000BC02F8E0CF16D10489F029E0C216D10488
:1009F00009F463C08AE0C816D10409F461C09BE021
:100A0000C916D10429F405E010E002C002E010E0AC
:100A10005524539482E00E94C2014C0183E00E945D
:100A2000C2015C0184E00E94C2016C0185E00E9469
:100A3000C2010230110509F048C0892809F043C0FD
:100A40008EE491E00E94AE0290E080E00E94BC0241
:100A500061E088E00E94EB0185E591E00E94AE0232
:100A600060E273E080E090E00E946F0260E088E066
:100A70000E94EB0160E089E00E94EB0160E08AE007
:100A80000E94EB0160E08BE00E94EB01E614F704AA
:100A900009F0A0CF0FB6F894DEBF0FBECDBF8CE635
:100AA00091E00E94AE0260E273E080E090E00E947C
:100AB0006F0290E080E00E94D10603E010E0A8CF32
:100AC00004E010E0A5CF512CA5CF0330110569F447
:100AD000AB28C9F78EE491E00E94AE0290E080E07E
:100AE0000E94BC0261E089E0B5CF0430110531F409
:100AF000C114D10481F461E08AE0ACCF009759F4CD
:100B00008EE491E00E94AE0290E080E00E94BC0280
:100B100061E08BE09FCF8928B1F6AB28A1F6CD2804
:100B200091F6892B81F6552009F474CF95CFE1E930
:100B3000F1E01382128288EE93E0A0E0B0E08483BB
:100B40009583A683B78388E091E09183808385ECC9
:100B500090E09587848784EC90E09787868780EC87
:100B600090E0918B808B81EC90E0938B828B82EC78
:100B700090E0958B848B86EC90E0978B868B118E22
:100B8000128E138E148E08958F929F92AF92BF9201
:100B9000CF92DF92EF92FF92CF93DF93EC016881C7
:100BA00079818A819B81611571058105910521F407
:100BB00064E279ED8BE597E02DE133EF41E050E021
:100BC0000E94680649015A019B01AC01A7EAB1E401
:100BD0000E9487066B017C01ACEEB4EFA501940185
:100BE0000E949506C60ED71EE81EF91EF7FE06C027
:100BF00081E0C81AD108E10880E8F80AC882D982E1
:100C0000EA82FB82C701B6019F77DF91CF91FF9007
:100C1000EF90DF90CF90BF90AF909F908F9008950E
:100C20008F929F92AF92BF92CF92DF92EF92FF92FC
:100C30006091000170910101809102019091030186
:100C4000611571058105910521F464E279ED8BE56B
:100C500097E02DE133EF41E050E00E946806490142
:100C60005A019B01AC01A7EAB1E40E9487066B011F
:100C70007C01ACEEB4EFA50194010E949506C60E6E
:100C8000D71EE81EF91EF7FE06C081E0C81AD1087B
:100C9000E10880E8F80AC0920001D0920101E092D8
:100CA0000201F0920301C701B6019F77FF90EF9018
:100CB000DF90CF90BF90AF909F908F9008956093FA
:100CC0000001709301018093020190930301089544
:100CD000052E97FB1EF400940E947F0657FD07D057
:100CE0000E949A0607FC03D04EF40C947F065095A0
:100CF0004095309521953F4F4F4F5F4F0895909508
:100D00008095709561957F4F8F4F9F4F08950E94FA
:100D1000BC06A59F900DB49F900DA49F800D911DC2
:100D200011240895B7FF0C9487060E948706821B42
:100D3000930B0895A1E21A2EAA1BBB1BFD010DC047
:100D4000AA1FBB1FEE1FFF1FA217B307E407F5077B
:100D500020F0A21BB30BE40BF50B661F771F881F57
:100D6000991F1A9469F760957095809590959B01ED
:100D7000AC01BD01CF010895A29FB001B39FC00196
:100D8000A39F700D811D1124911DB29F700D811DB7
:100D90001124911D0895EE0FFF1F0590F491E02D91
:060DA0000994F894FFCF56
:100DA60001000000000000002C018C00B900790150
:100DB600EA00C800DC000D0A0047616D6520626527
:100DC60067696E730046756E6374696F6E20646939
:100DD60073706C61795061747465726E00506174E1
:100DE6007465726E20636F6D706C6574650050611A
:100DF6007373656400436F72726563742042757421
:100E0600746F6E205072657373656400416C6C205C
:100E1600636F727265637420427574746F6E7320AB
:080E26007072657373656400CE
:00000001FF
