:100000000C9462000C948A000C948A000C948A0070
:100010000C948A000C948A000C948A000C948A0038
:100020000C948A000C948A000C948A000C948A0028
:100030000C948A000C948A000C948A000C948A0018
:100040000C94AF030C948A000C947D030C9457031A
:100050000C948A000C948A000C948A000C948A00F8
:100060000C948A000C948A000000000024002700F1
:100070002A0000000000250028002B0000000000DE
:1000800023002600290004040404040404040202DA
:100090000202020203030303030301020408102007
:1000A0004080010204081020010204081020000012
:1000B0000008000201000003040700000000000027
:1000C0000000210511241FBECFEFD8E0DEBFCDBF59
:1000D00011E0A0E0B1E0E4E3FCE002C005900D9285
:1000E000AC35B107D9F722E0ACE5B1E001C01D9213
:1000F000A230B207E1F710E0C2E6D0E004C02197D9
:10010000FE010E940D06C136D107C9F70E94F9030E
:100110000C9418060C940000CF92DF92EF92FF929D
:100120000F931F93CF93DF936C017A018B01C0E093
:10013000D0E0CE15DF0589F0D8016D918D01D60193
:10014000ED91FC910190F081E02DC6010995892B7C
:1001500011F47E0102C02196ECCFC701DF91CF914F
:100160001F910F91FF90EF90DF90CF900895089529
:1001700080E090E00895FC01538D448D252F30E000
:10018000842F90E0821B930B541710F0CF960895A4
:1001900001970895FC01918D828D981761F0828DF1
:1001A000DF01A80FB11D5D968C91928D9F5F9F73AB
:1001B000928F90E008958FEF9FEF0895FC01918D4D
:1001C000828D981731F0828DE80FF11D858D90E0BA
:1001D00008958FEF9FEF0895FC01918D228D892F57
:1001E00090E0805C9F4F821B91098F73992708953F
:1001F00085E691E00E94EC0021E0892B09F420E0E3
:10020000822F0895FC01848DDF01A80FB11DA35A30
:10021000BF4F2C91848D90E001968F739927848F26
:10022000A689B7892C93A089B1898C9180648C931D
:10023000938D848D981306C00288F389E02D808108
:100240008F7D80830895EF92FF920F931F93CF933A
:10025000DF93EC0181E0888F9B8D8C8D981305C016
:10026000E889F989808185FD24C0F62E0B8D10E088
:100270000F5F1F4F0F731127E02E8C8DE8120CC0FB
:100280000FB607FCFACFE889F989808185FFF5CFA1
:10029000CE010E940201F1CF8B8DFE01E80FF11D0E
:1002A000E35AFF4FF0820B8FEA89FB8980818062DD
:1002B00007C0EE89FF896083E889F98980818064BD
:1002C000808381E090E0DF91CF911F910F91FF90AB
:1002D000EF900895CF93DF93EC01888D8823C9F0C8
:1002E000EA89FB89808185FD05C0A889B9898C913F
:1002F00086FD0FC00FB607FCF5CF808185FFF2CFDA
:10030000A889B9898C9185FFEDCFCE010E940201A9
:10031000E7CFDF91CF91089580E090E0892B29F01D
:100320000E94F80081110C9400000895833081F040
:1003300028F4813099F08230A1F008958730A9F037
:100340008830B9F08430D1F4809180008F7D03C073
:10035000809180008F7780938000089584B58F7797
:1003600002C084B58F7D84BD08958091B0008F77E1
:1003700003C08091B0008F7D8093B0000895CF932B
:10038000DF93282F30E0F901E255FF4F8491F90106
:10039000E656FF4FD491F901EA57FF4FC491CC23A1
:1003A00091F081110E949601EC2FF0E0EE0FFF1FFB
:1003B000E458FF4FA591B491EC91ED2381E090E0DA
:1003C00021F480E002C080E090E0DF91CF910895B9
:1003D0001F93CF93DF93282F30E0F901E255FF4FB1
:1003E0008491F901E656FF4FD491F901EA57FF4F86
:1003F000C491CC23C9F0162F81110E949601EC2FD5
:10040000F0E0EE0FFF1FEE58FF4FA591B4918FB7AC
:10041000F894111105C09C91ED2FE095E92302C0DD
:10042000EC91ED2BEC938FBFDF91CF911F9108954D
:10043000CF93DF9390E0FC01E656FF4F2491FC013F
:10044000EA57FF4F8491882361F190E0880F991F4C
:10045000FC01E859FF4FC591D491FC01EE58FF4FC4
:10046000A591B491611109C09FB7F8948881209536
:1004700082238883EC912E230BC0623061F49FB7F6
:10048000F8943881822F809583238883EC912E2BDA
:100490002C939FBF06C08FB7F894E8812E2B28833A
:1004A0008FBFDF91CF9108953FB7F894809161019C
:1004B00090916201A0916301B091640126B5A89B5F
:1004C00005C02F3F19F00196A11DB11D3FBFBA2FE6
:1004D000A92F982F8827820F911DA11DB11DBC0146
:1004E000CD0142E0660F771F881F991F4A95D1F70B
:1004F00008958F929F92AF92BF92CF92DF92EF9228
:10050000FF926B017C010E9454024B015C01C114FB
:10051000D104E104F104F1F00E945402DC01CB01AA
:1005200088199909AA09BB09883E9340A105B1051C
:1005300070F321E0C21AD108E108F10888EE880EB4
:1005400083E0981EA11CB11CC114D104E104F10484
:1005500019F7DDCFFF90EF90DF90CF90BF90AF9075
:100560009F908F900895009769F0FC010190002002
:10057000E9F73197AF01481B590BBC0185E691E0C3
:100580000C948C0080E090E00895CF93DF930E945C
:10059000B302EC0186E191E00E94B3028C0F9D1F33
:1005A000DF91CF9108958F929F92AF92BF92CF9299
:1005B000DF92EF92FF920F931F93CF93DF93CDB70C
:1005C000DEB7A1970FB6F894DEBF0FBECDBF6C01AA
:1005D000990FEE08FF08F7FE31C0E0916501F09138
:1005E00066010190F081E02D6DE285E691E00995CC
:1005F0008C0122273327A9012C193D094E095F09D7
:1006000019A2CE0181967C019AE0892E912CA12C11
:10061000B12CCA01B901A50194010E94DC05605DFD
:10062000F70162937F01211531054105510589F7D5
:10063000CF010E94B302080F191F1EC0A701960127
:1006400019A28E010F5D1F4F8AE0C82ED12CE12C1C
:10065000F12CCA01B901A70196010E94DC05605D79
:10066000F80162938F01211531054105510589F784
:10067000CF010E94B3028C0186E191E00E94B30297
:10068000800F911FA1960FB6F894DEBF0FBECDBFAD
:10069000DF91CF911F910F91FF90EF90DF90CF905E
:1006A000BF90AF909F908F9008950E9413061F9265
:1006B0000F920FB60F9211242F933F934F935F9396
:1006C0006F937F938F939F93AF93BF93EF93FF931A
:1006D00085E691E00E940201FF91EF91BF91AF91F9
:1006E0009F918F917F916F915F914F913F912F914A
:1006F0000F900FBE0F901F9018951F920F920FB67C
:100700000F9211242F938F939F93EF93FF93E09178
:100710007501F09176018081E0917B01F0917C017F
:1007200082FD12C0908180917E018F5F8F73209136
:100730007F01821751F0E0917E01F0E0EB59FE4F0E
:10074000958F80937E0101C08081FF91EF919F91F1
:100750008F912F910F900FBE0F901F9018951F92A1
:100760000F920FB60F9211242F933F938F939F9365
:10077000AF93BF9380915D0190915E01A0915F0165
:10078000B091600130915C0123E0230F2D3720F4FC
:100790000196A11DB11D05C026E8230F0296A11DDB
:1007A000B11D20935C0180935D0190935E01A09345
:1007B0005F01B09360018091610190916201A0910D
:1007C0006301B09164010196A11DB11D8093610187
:1007D00090936201A0936301B0936401BF91AF91C4
:1007E0009F918F913F912F910F900FBE0F901F906F
:1007F0001895CF93DF93CDB7DEB728970FB6F8944F
:10080000DEBF0FBECDBF789484B5826084BD84B551
:10081000816084BD85B5826085BD85B5816085BDFB
:1008200080916E00816080936E00109281008091B3
:10083000810082608093810080918100816080933B
:100840008100809180008160809380008091B10060
:1008500084608093B1008091B00081608093B0008B
:1008600080917A00846080937A0080917A0082601F
:1008700080937A0080917A00816080937A008091E1
:100880007A00806880937A001092C100E09175012F
:10089000F091760182E08083E0917101F091720124
:1008A0001082E0917301F09174018FEC80831092BB
:1008B0007D01E0917901F0917A0186E08083E091F9
:1008C0007701F0917801808180618083E0917701E8
:1008D000F0917801808188608083E0917701F091C8
:1008E0007801808180688083E0917701F0917801C0
:1008F00080818F7D808362E081E00E94180262E047
:1009000082E00E94180262E083E00E94180262E026
:1009100084E00E94180261E088E00E94180261E011
:1009200089E00E94180261E08AE00E94180261E0FA
:100930008BE00E94180261E086E00E94180261E0EC
:1009400087E00E9418026E0129E0C20ED11C84E0EB
:10095000482E512C612C712C81E00E94BF0111E0C6
:10096000892B09F410E082E00E94BF0183E00E941D
:10097000BF0184E00E94BF0189E191E00E94C502AD
:10098000812F90E00E94D302111105C061E088E040
:100990000E94E80104C085E291E00E94C5028AE25B
:1009A00091E00E94C5028E010F5F1F4F78010E94E7
:1009B0009C05A30192010E94AA054B015C01E8E09D
:1009C0008E0E911CA11CB11CC4010E94D302F70120
:1009D000819291927F0161E0882D0E94E80164EF8D
:1009E00071E080E090E00E94790260E0882D0E9432
:1009F000E80164EF71E080E090E00E947902EC147D
:100A0000FD04A9F682E491E00E94C502F8018191FB
:100A100091918F010E94D3020C151D05B9F70FB6F5
:100A2000F894DEBF0FBECDBF83E591E00E94C50202
:100A300060E273E080E090E00E9479020E948C0105
:100A40008BCFE5E6F1E01382128288EE93E0A0E01E
:100A5000B0E084839583A683B78388E091E0918397
:100A6000808385EC90E09587848784EC90E097877D
:100A7000868780EC90E0918B808B81EC90E0938B6B
:100A8000828B82EC90E0958B848B86EC90E0978B48
:100A9000868B118E128E138E148E08958F929F92D4
:100AA000AF92BF92CF92DF92EF92FF92CF93DF93FC
:100AB000EC01688179818A819B81611571058105CD
:100AC000910521F464E279ED8BE597E02DE133EFB8
:100AD00041E050E00E94AA0549015A019B01AC0186
:100AE000A7EAB1E40E94C9056B017C01ACEEB4EF4A
:100AF000A50194010E94D705DC01CB018C0D9D1D41
:100B0000AE1DBF1DB7FF03C00197A109B048888380
:100B10009983AA83BB83BC01CD019F77DF91CF91DD
:100B2000FF90EF90DF90CF90BF90AF909F908F900D
:100B300008950E944E05089580E091E00E944E05C0
:100B400008956093000170930101809302019093D6
:100B500003010895052E97FB1EF400940E94C10521
:100B600057FD07D00E94DC0507FC03D04EF40C941F
:100B7000C10550954095309521953F4F4F4F5F4FA0
:100B8000089590958095709561957F4F8F4F9F4FF9
:100B900008950E94FE05A59F900DB49F900DA49FFF
:100BA000800D911D11240895B7FF0C94C9050E9472
:100BB000C905821B930B0895A1E21A2EAA1BBB1B29
:100BC000FD010DC0AA1FBB1FEE1FFF1FA217B30719
:100BD000E407F50720F0A21BB30BE40BF50B661F2F
:100BE000771F881F991F1A9469F7609570958095F3
:100BF00090959B01AC01BD01CF010895A29FB0016A
:100C0000B39FC001A39F700D811D1124911DB29F40
:100C1000700D811D1124911D0895EE0FFF1F059089
:100C2000F491E02D099481E090E0F8940C9418067A
:040C3000F894FFCF66
:100C3400010000000000000023018C00BB006A01D9
:100C4400EC00CA00DE000D0A0047616D6520626594
:100C540067696E73004E6F70650046756E637469E4
:100C64006F6E20646973706C61795061747465721D
:100C74006E005061747465726E20636F6D706C6584
:0C0C8400746500537563636573730000B2
:00000001FF
